{
  "contractName": "TaskMarketplace",
  "abi": [
    {
      "anonymous": false,
      "inputs": [
        {
          "indexed": false,
          "internalType": "address",
          "name": "arbitrator",
          "type": "address"
        },
        {
          "indexed": false,
          "internalType": "uint256",
          "name": "stake",
          "type": "uint256"
        }
      ],
      "name": "ArbitratorAdded",
      "type": "event"
    },
    {
      "anonymous": false,
      "inputs": [
        {
          "indexed": false,
          "internalType": "address",
          "name": "arbitrator",
          "type": "address"
        },
        {
          "indexed": false,
          "internalType": "uint256",
          "name": "returnedStake",
          "type": "uint256"
        }
      ],
      "name": "ArbitratorRemoved",
      "type": "event"
    },
    {
      "anonymous": false,
      "inputs": [
        {
          "indexed": false,
          "internalType": "uint256",
          "name": "taskId",
          "type": "uint256"
        },
        {
          "indexed": false,
          "internalType": "address",
          "name": "arbitrator",
          "type": "address"
        },
        {
          "indexed": false,
          "internalType": "bool",
          "name": "voteForWorker",
          "type": "bool"
        }
      ],
      "name": "ArbitratorVoted",
      "type": "event"
    },
    {
      "anonymous": false,
      "inputs": [
        {
          "indexed": false,
          "internalType": "uint256",
          "name": "taskId",
          "type": "uint256"
        },
        {
          "indexed": false,
          "internalType": "string",
          "name": "reason",
          "type": "string"
        }
      ],
      "name": "DisputeRaised",
      "type": "event"
    },
    {
      "anonymous": false,
      "inputs": [
        {
          "indexed": false,
          "internalType": "uint256",
          "name": "taskId",
          "type": "uint256"
        },
        {
          "indexed": false,
          "internalType": "bool",
          "name": "workerPaid",
          "type": "bool"
        }
      ],
      "name": "DisputeResolved",
      "type": "event"
    },
    {
      "anonymous": false,
      "inputs": [
        {
          "indexed": false,
          "internalType": "uint256",
          "name": "taskId",
          "type": "uint256"
        },
        {
          "indexed": false,
          "internalType": "address",
          "name": "worker",
          "type": "address"
        },
        {
          "indexed": false,
          "internalType": "uint256",
          "name": "amount",
          "type": "uint256"
        }
      ],
      "name": "PaymentReleased",
      "type": "event"
    },
    {
      "anonymous": false,
      "inputs": [
        {
          "indexed": false,
          "internalType": "uint256",
          "name": "taskId",
          "type": "uint256"
        },
        {
          "indexed": false,
          "internalType": "address",
          "name": "worker",
          "type": "address"
        }
      ],
      "name": "TaskAccepted",
      "type": "event"
    },
    {
      "anonymous": false,
      "inputs": [
        {
          "indexed": false,
          "internalType": "uint256",
          "name": "taskId",
          "type": "uint256"
        }
      ],
      "name": "TaskCompleted",
      "type": "event"
    },
    {
      "anonymous": false,
      "inputs": [
        {
          "indexed": false,
          "internalType": "uint256",
          "name": "taskId",
          "type": "uint256"
        },
        {
          "indexed": false,
          "internalType": "address",
          "name": "creator",
          "type": "address"
        },
        {
          "indexed": false,
          "internalType": "string",
          "name": "description",
          "type": "string"
        },
        {
          "indexed": false,
          "internalType": "uint256",
          "name": "reward",
          "type": "uint256"
        }
      ],
      "name": "TaskCreated",
      "type": "event"
    },
    {
      "inputs": [],
      "name": "ARBITRATORS_PER_DISPUTE",
      "outputs": [
        {
          "internalType": "uint256",
          "name": "",
          "type": "uint256"
        }
      ],
      "stateMutability": "view",
      "type": "function",
      "constant": true
    },
    {
      "inputs": [],
      "name": "ARBITRATOR_FEE",
      "outputs": [
        {
          "internalType": "uint256",
          "name": "",
          "type": "uint256"
        }
      ],
      "stateMutability": "view",
      "type": "function",
      "constant": true
    },
    {
      "inputs": [],
      "name": "DISPUTE_PERIOD",
      "outputs": [
        {
          "internalType": "uint256",
          "name": "",
          "type": "uint256"
        }
      ],
      "stateMutability": "view",
      "type": "function",
      "constant": true
    },
    {
      "inputs": [
        {
          "internalType": "uint256",
          "name": "",
          "type": "uint256"
        }
      ],
      "name": "arbitratorList",
      "outputs": [
        {
          "internalType": "address",
          "name": "",
          "type": "address"
        }
      ],
      "stateMutability": "view",
      "type": "function",
      "constant": true
    },
    {
      "inputs": [
        {
          "internalType": "address",
          "name": "",
          "type": "address"
        }
      ],
      "name": "arbitrators",
      "outputs": [
        {
          "internalType": "bool",
          "name": "isActive",
          "type": "bool"
        },
        {
          "internalType": "uint256",
          "name": "stake",
          "type": "uint256"
        }
      ],
      "stateMutability": "view",
      "type": "function",
      "constant": true
    },
    {
      "inputs": [
        {
          "internalType": "uint256",
          "name": "",
          "type": "uint256"
        }
      ],
      "name": "disputes",
      "outputs": [
        {
          "internalType": "uint256",
          "name": "votesForWorker",
          "type": "uint256"
        },
        {
          "internalType": "uint256",
          "name": "votesForCreator",
          "type": "uint256"
        },
        {
          "internalType": "bool",
          "name": "isResolved",
          "type": "bool"
        }
      ],
      "stateMutability": "view",
      "type": "function",
      "constant": true
    },
    {
      "inputs": [],
      "name": "taskCount",
      "outputs": [
        {
          "internalType": "uint256",
          "name": "",
          "type": "uint256"
        }
      ],
      "stateMutability": "view",
      "type": "function",
      "constant": true
    },
    {
      "inputs": [
        {
          "internalType": "uint256",
          "name": "",
          "type": "uint256"
        }
      ],
      "name": "tasks",
      "outputs": [
        {
          "internalType": "address",
          "name": "creator",
          "type": "address"
        },
        {
          "internalType": "string",
          "name": "description",
          "type": "string"
        },
        {
          "internalType": "uint256",
          "name": "reward",
          "type": "uint256"
        },
        {
          "internalType": "address",
          "name": "worker",
          "type": "address"
        },
        {
          "internalType": "bool",
          "name": "isCompleted",
          "type": "bool"
        },
        {
          "internalType": "bool",
          "name": "isPaid",
          "type": "bool"
        },
        {
          "internalType": "uint256",
          "name": "completionTime",
          "type": "uint256"
        },
        {
          "internalType": "bool",
          "name": "isDisputed",
          "type": "bool"
        },
        {
          "internalType": "string",
          "name": "disputeReason",
          "type": "string"
        }
      ],
      "stateMutability": "view",
      "type": "function",
      "constant": true
    },
    {
      "inputs": [
        {
          "internalType": "string",
          "name": "_description",
          "type": "string"
        }
      ],
      "name": "createTask",
      "outputs": [],
      "stateMutability": "payable",
      "type": "function",
      "payable": true
    },
    {
      "inputs": [
        {
          "internalType": "uint256",
          "name": "_taskId",
          "type": "uint256"
        }
      ],
      "name": "acceptTask",
      "outputs": [],
      "stateMutability": "payable",
      "type": "function",
      "payable": true
    },
    {
      "inputs": [
        {
          "internalType": "uint256",
          "name": "_taskId",
          "type": "uint256"
        }
      ],
      "name": "completeTask",
      "outputs": [],
      "stateMutability": "nonpayable",
      "type": "function"
    },
    {
      "inputs": [],
      "name": "becomeArbitrator",
      "outputs": [],
      "stateMutability": "payable",
      "type": "function",
      "payable": true
    },
    {
      "inputs": [],
      "name": "stopBeingArbitrator",
      "outputs": [],
      "stateMutability": "nonpayable",
      "type": "function"
    },
    {
      "inputs": [
        {
          "internalType": "uint256",
          "name": "_taskId",
          "type": "uint256"
        },
        {
          "internalType": "string",
          "name": "_reason",
          "type": "string"
        }
      ],
      "name": "raiseDispute",
      "outputs": [],
      "stateMutability": "payable",
      "type": "function",
      "payable": true
    },
    {
      "inputs": [
        {
          "internalType": "uint256",
          "name": "_taskId",
          "type": "uint256"
        },
        {
          "internalType": "bool",
          "name": "_voteForWorker",
          "type": "bool"
        }
      ],
      "name": "voteOnDispute",
      "outputs": [],
      "stateMutability": "nonpayable",
      "type": "function"
    },
    {
      "inputs": [
        {
          "internalType": "uint256",
          "name": "_taskId",
          "type": "uint256"
        }
      ],
      "name": "releasePayment",
      "outputs": [],
      "stateMutability": "nonpayable",
      "type": "function"
    },
    {
      "inputs": [
        {
          "internalType": "uint256",
          "name": "_taskId",
          "type": "uint256"
        }
      ],
      "name": "getTask",
      "outputs": [
        {
          "components": [
            {
              "internalType": "address",
              "name": "creator",
              "type": "address"
            },
            {
              "internalType": "string",
              "name": "description",
              "type": "string"
            },
            {
              "internalType": "uint256",
              "name": "reward",
              "type": "uint256"
            },
            {
              "internalType": "address",
              "name": "worker",
              "type": "address"
            },
            {
              "internalType": "bool",
              "name": "isCompleted",
              "type": "bool"
            },
            {
              "internalType": "bool",
              "name": "isPaid",
              "type": "bool"
            },
            {
              "internalType": "uint256",
              "name": "completionTime",
              "type": "uint256"
            },
            {
              "internalType": "bool",
              "name": "isDisputed",
              "type": "bool"
            },
            {
              "internalType": "string",
              "name": "disputeReason",
              "type": "string"
            }
          ],
          "internalType": "struct TaskMarketplace.Task",
          "name": "",
          "type": "tuple"
        }
      ],
      "stateMutability": "view",
      "type": "function",
      "constant": true
    }
  ],
  "bytecode": "0x608060405234801561001057600080fd5b50614091806100206000396000f3fe6080604052600436106100fe5760003560e01c806378aee33b11610095578063a4f5df1211610064578063a4f5df1214610308578063a5bbe22b14610331578063b6cb58a51461035c578063e1e2955814610387578063f41e0cc4146103b0576100fe565b806378aee33b1461023257806388685cd91461025d5780638d97767214610286578063a23ae203146102cb576100fe565b806338460476116100d1578063384604761461018257806351d0ea3714610199578063564a565d146101d75780635aef573c14610216576100fe565b8063111002aa1461010357806315a77b571461011f5780631bf6912d146101295780631d65e77e14610145575b600080fd5b61011d6004803603810190610118919061294f565b6103db565b005b610127610645565b005b610143600480360381019061013e91906129ce565b610838565b005b34801561015157600080fd5b5061016c600480360381019061016791906129ce565b610ad0565b6040516101799190612bb1565b60405180910390f35b34801561018e57600080fd5b50610197610dd8565b005b3480156101a557600080fd5b506101c060048036038101906101bb9190612bff565b61115b565b6040516101ce929190612c4a565b60405180910390f35b3480156101e357600080fd5b506101fe60048036038101906101f991906129ce565b61118c565b60405161020d93929190612c73565b60405180910390f35b610230600480360381019061022b9190612caa565b6111c3565b005b34801561023e57600080fd5b506102476114ce565b6040516102549190612d06565b60405180910390f35b34801561026957600080fd5b50610284600480360381019061027f91906129ce565b6114d9565b005b34801561029257600080fd5b506102ad60048036038101906102a891906129ce565b611863565b6040516102c299989796959493929190612d7a565b60405180910390f35b3480156102d757600080fd5b506102f260048036038101906102ed91906129ce565b611a28565b6040516102ff9190612e15565b60405180910390f35b34801561031457600080fd5b5061032f600480360381019061032a9190612e5c565b611a67565b005b34801561033d57600080fd5b50610346611d9c565b6040516103539190612d06565b60405180910390f35b34801561036857600080fd5b50610371611da1565b60405161037e9190612d06565b60405180910390f35b34801561039357600080fd5b506103ae60048036038101906103a991906129ce565b611da7565b005b3480156103bc57600080fd5b506103c5611f96565b6040516103d29190612d06565b60405180910390f35b6000341161041e576040517f08c379a000000000000000000000000000000000000000000000000000000000815260040161041590612f0e565b60405180910390fd5b6004600081548092919061043190612f5d565b91905055506040518061012001604052803373ffffffffffffffffffffffffffffffffffffffff168152602001828152602001348152602001600073ffffffffffffffffffffffffffffffffffffffff168152602001600015158152602001600015158152602001600081526020016000151581526020016040518060200160405280600081525081525060026000600454815260200190815260200160002060008201518160000160006101000a81548173ffffffffffffffffffffffffffffffffffffffff021916908373ffffffffffffffffffffffffffffffffffffffff160217905550602082015181600101908161052d91906131b1565b506040820151816002015560608201518160030160006101000a81548173ffffffffffffffffffffffffffffffffffffffff021916908373ffffffffffffffffffffffffffffffffffffffff16021790555060808201518160030160146101000a81548160ff02191690831515021790555060a08201518160030160156101000a81548160ff02191690831515021790555060c0820151816004015560e08201518160050160006101000a81548160ff0219169083151502179055506101008201518160060190816105ff91906131b1565b509050507f9e3c9757475c00b86393e183b68033bb76e48fa164849c7428ad17f62e1954a760045433833460405161063a9493929190613283565b60405180910390a150565b60003411610688576040517f08c379a000000000000000000000000000000000000000000000000000000000815260040161067f90613341565b60405180910390fd5b6000803373ffffffffffffffffffffffffffffffffffffffff1673ffffffffffffffffffffffffffffffffffffffff16815260200190815260200160002060000160009054906101000a900460ff1615610717576040517f08c379a000000000000000000000000000000000000000000000000000000000815260040161070e906133ad565b60405180910390fd5b6040518060400160405280600115158152602001348152506000803373ffffffffffffffffffffffffffffffffffffffff1673ffffffffffffffffffffffffffffffffffffffff16815260200190815260200160002060008201518160000160006101000a81548160ff021916908315150217905550602082015181600101559050506001339080600181540180825580915050600190039060005260206000200160009091909190916101000a81548173ffffffffffffffffffffffffffffffffffffffff021916908373ffffffffffffffffffffffffffffffffffffffff1602179055507ff1becefc1e31ee5ec0721aa1565cf14963e4ef778cdd38d5a36eb785114c3d99333460405161082e9291906133cd565b60405180910390a1565b6000600260008381526020019081526020016000209050600073ffffffffffffffffffffffffffffffffffffffff168160000160009054906101000a900473ffffffffffffffffffffffffffffffffffffffff1673ffffffffffffffffffffffffffffffffffffffff16036108e2576040517f08c379a00000000000000000000000000000000000000000000000000000000081526004016108d990613442565b60405180910390fd5b600073ffffffffffffffffffffffffffffffffffffffff168160030160009054906101000a900473ffffffffffffffffffffffffffffffffffffffff1673ffffffffffffffffffffffffffffffffffffffff1614610975576040517f08c379a000000000000000000000000000000000000000000000000000000000815260040161096c906134ae565b60405180910390fd5b8060000160009054906101000a900473ffffffffffffffffffffffffffffffffffffffff1673ffffffffffffffffffffffffffffffffffffffff163373ffffffffffffffffffffffffffffffffffffffff1603610a07576040517f08c379a00000000000000000000000000000000000000000000000000000000081526004016109fe90613540565b60405180910390fd5b66470de4df8200003414610a50576040517f08c379a0000000000000000000000000000000000000000000000000000000008152600401610a47906135d2565b60405180910390fd5b338160030160006101000a81548173ffffffffffffffffffffffffffffffffffffffff021916908373ffffffffffffffffffffffffffffffffffffffff1602179055507fc8717b61398fb9d7cacf49fe1e296b2f10e9711226b532842b6ffd642cb6a2c68233604051610ac49291906135f2565b60405180910390a15050565b610ad86126bb565b600073ffffffffffffffffffffffffffffffffffffffff166002600084815260200190815260200160002060000160009054906101000a900473ffffffffffffffffffffffffffffffffffffffff1673ffffffffffffffffffffffffffffffffffffffff1603610b7d576040517f08c379a0000000000000000000000000000000000000000000000000000000008152600401610b7490613442565b60405180910390fd5b60026000838152602001908152602001600020604051806101200160405290816000820160009054906101000a900473ffffffffffffffffffffffffffffffffffffffff1673ffffffffffffffffffffffffffffffffffffffff1673ffffffffffffffffffffffffffffffffffffffff168152602001600182018054610c0290612fd4565b80601f0160208091040260200160405190810160405280929190818152602001828054610c2e90612fd4565b8015610c7b5780601f10610c5057610100808354040283529160200191610c7b565b820191906000526020600020905b815481529060010190602001808311610c5e57829003601f168201915b50505050508152602001600282015481526020016003820160009054906101000a900473ffffffffffffffffffffffffffffffffffffffff1673ffffffffffffffffffffffffffffffffffffffff1673ffffffffffffffffffffffffffffffffffffffff1681526020016003820160149054906101000a900460ff161515151581526020016003820160159054906101000a900460ff16151515158152602001600482015481526020016005820160009054906101000a900460ff16151515158152602001600682018054610d4f90612fd4565b80601f0160208091040260200160405190810160405280929190818152602001828054610d7b90612fd4565b8015610dc85780601f10610d9d57610100808354040283529160200191610dc8565b820191906000526020600020905b815481529060010190602001808311610dab57829003601f168201915b5050505050815250509050919050565b6000803373ffffffffffffffffffffffffffffffffffffffff1673ffffffffffffffffffffffffffffffffffffffff16815260200190815260200160002060000160009054906101000a900460ff16610e66576040517f08c379a0000000000000000000000000000000000000000000000000000000008152600401610e5d90613667565b60405180910390fd5b60008060003373ffffffffffffffffffffffffffffffffffffffff1673ffffffffffffffffffffffffffffffffffffffff16815260200190815260200160002060010154905060008060003373ffffffffffffffffffffffffffffffffffffffff1673ffffffffffffffffffffffffffffffffffffffff16815260200190815260200160002060000160006101000a81548160ff02191690831515021790555060008060003373ffffffffffffffffffffffffffffffffffffffff1673ffffffffffffffffffffffffffffffffffffffff1681526020019081526020016000206001018190555060005b6001805490508110156110d7573373ffffffffffffffffffffffffffffffffffffffff1660018281548110610f8857610f87613687565b5b9060005260206000200160009054906101000a900473ffffffffffffffffffffffffffffffffffffffff1673ffffffffffffffffffffffffffffffffffffffff16036110c4576001808080549050610fe091906136b6565b81548110610ff157610ff0613687565b5b9060005260206000200160009054906101000a900473ffffffffffffffffffffffffffffffffffffffff16600182815481106110305761102f613687565b5b9060005260206000200160006101000a81548173ffffffffffffffffffffffffffffffffffffffff021916908373ffffffffffffffffffffffffffffffffffffffff160217905550600180548061108a576110896136ea565b5b6001900381819060005260206000200160006101000a81549073ffffffffffffffffffffffffffffffffffffffff021916905590556110d7565b80806110cf90612f5d565b915050610f50565b503373ffffffffffffffffffffffffffffffffffffffff166108fc829081150290604051600060405180830381858888f1935050505015801561111e573d6000803e3d6000fd5b507f812cc47a665172f9b45b96fec43dcc2692ad8461920041e9af369ebcc9b9dbfd33826040516111509291906133cd565b60405180910390a150565b60006020528060005260406000206000915090508060000160009054906101000a900460ff16908060010154905082565b60036020528060005260406000206000915090508060030154908060040154908060060160009054906101000a900460ff16905083565b60006002600084815260200190815260200160002090508060000160009054906101000a900473ffffffffffffffffffffffffffffffffffffffff1673ffffffffffffffffffffffffffffffffffffffff163373ffffffffffffffffffffffffffffffffffffffff161461126c576040517f08c379a00000000000000000000000000000000000000000000000000000000081526004016112639061378b565b60405180910390fd5b8060030160149054906101000a900460ff166112bd576040517f08c379a00000000000000000000000000000000000000000000000000000000081526004016112b4906137f7565b60405180910390fd5b8060030160159054906101000a900460ff161561130f576040517f08c379a000000000000000000000000000000000000000000000000000000000815260040161130690613863565b60405180910390fd5b8060050160009054906101000a900460ff1615611361576040517f08c379a0000000000000000000000000000000000000000000000000000000008152600401611358906138cf565b60405180910390fd5b603c816004015461137291906138ef565b4211156113b4576040517f08c379a00000000000000000000000000000000000000000000000000000000081526004016113ab9061396f565b60405180910390fd5b66470de4df82000034146113fd576040517f08c379a00000000000000000000000000000000000000000000000000000000081526004016113f4906135d2565b60405180910390fd5b60018160050160006101000a81548160ff0219169083151502179055508181600601908161142b91906131b1565b50600060036000858152602001908152602001600020905061144b611f9b565b8160000190600361145d929190612739565b50600081600301819055506000816004018190555060008160060160006101000a81548160ff0219169083151502179055507fe07ad455e24561261e9047aab2f668ae1fc2cc6fda35021764673613b888836d84846040516114c092919061398f565b60405180910390a150505050565b66470de4df82000081565b60006002600083815260200190815260200160002090508060000160009054906101000a900473ffffffffffffffffffffffffffffffffffffffff1673ffffffffffffffffffffffffffffffffffffffff163373ffffffffffffffffffffffffffffffffffffffff1614806115b857508060030160009054906101000a900473ffffffffffffffffffffffffffffffffffffffff1673ffffffffffffffffffffffffffffffffffffffff163373ffffffffffffffffffffffffffffffffffffffff161480156115b75750603c81600401546115b491906138ef565b42115b5b6115f7576040517f08c379a00000000000000000000000000000000000000000000000000000000081526004016115ee90613a31565b60405180910390fd5b8060030160149054906101000a900460ff16611648576040517f08c379a000000000000000000000000000000000000000000000000000000000815260040161163f90613a9d565b60405180910390fd5b8060030160159054906101000a900460ff161561169a576040517f08c379a000000000000000000000000000000000000000000000000000000000815260040161169190613863565b60405180910390fd5b8060050160009054906101000a900460ff16156116ec576040517f08c379a00000000000000000000000000000000000000000000000000000000081526004016116e390613b09565b60405180910390fd5b60018160030160156101000a81548160ff0219169083151502179055508060000160009054906101000a900473ffffffffffffffffffffffffffffffffffffffff1673ffffffffffffffffffffffffffffffffffffffff166108fc66470de4df8200009081150290604051600060405180830381858888f1935050505015801561177a573d6000803e3d6000fd5b508060030160009054906101000a900473ffffffffffffffffffffffffffffffffffffffff1673ffffffffffffffffffffffffffffffffffffffff166108fc66470de4df82000083600201546117d091906138ef565b9081150290604051600060405180830381858888f193505050501580156117fb573d6000803e3d6000fd5b507f21d71db5be59bb9fa133895586b7404307dd33fb93b16db09dc6f1d9d7d231b0828260030160009054906101000a900473ffffffffffffffffffffffffffffffffffffffff16836002015460405161185793929190613b29565b60405180910390a15050565b60026020528060005260406000206000915090508060000160009054906101000a900473ffffffffffffffffffffffffffffffffffffffff16908060010180546118ac90612fd4565b80601f01602080910402602001604051908101604052809291908181526020018280546118d890612fd4565b80156119255780601f106118fa57610100808354040283529160200191611925565b820191906000526020600020905b81548152906001019060200180831161190857829003601f168201915b5050505050908060020154908060030160009054906101000a900473ffffffffffffffffffffffffffffffffffffffff16908060030160149054906101000a900460ff16908060030160159054906101000a900460ff16908060040154908060050160009054906101000a900460ff16908060060180546119a590612fd4565b80601f01602080910402602001604051908101604052809291908181526020018280546119d190612fd4565b8015611a1e5780601f106119f357610100808354040283529160200191611a1e565b820191906000526020600020905b815481529060010190602001808311611a0157829003601f168201915b5050505050905089565b60018181548110611a3857600080fd5b906000526020600020016000915054906101000a900473ffffffffffffffffffffffffffffffffffffffff1681565b600060036000848152602001908152602001600020905060006002600085815260200190815260200160002090508060050160009054906101000a900460ff16611ae6576040517f08c379a0000000000000000000000000000000000000000000000000000000008152600401611add90613bac565b60405180910390fd5b8160060160009054906101000a900460ff1615611b38576040517f08c379a0000000000000000000000000000000000000000000000000000000008152600401611b2f90613c18565b60405180910390fd5b6000805b6003811015611bcb573373ffffffffffffffffffffffffffffffffffffffff16846000018260038110611b7257611b71613687565b5b0160009054906101000a900473ffffffffffffffffffffffffffffffffffffffff1673ffffffffffffffffffffffffffffffffffffffff1603611bb85760019150611bcb565b8080611bc390612f5d565b915050611b3c565b5080611c0c576040517f08c379a0000000000000000000000000000000000000000000000000000000008152600401611c0390613caa565b60405180910390fd5b8260050160003373ffffffffffffffffffffffffffffffffffffffff1673ffffffffffffffffffffffffffffffffffffffff16815260200190815260200160002060009054906101000a900460ff1615611c9b576040517f08c379a0000000000000000000000000000000000000000000000000000000008152600401611c9290613d16565b60405180910390fd5b60018360050160003373ffffffffffffffffffffffffffffffffffffffff1673ffffffffffffffffffffffffffffffffffffffff16815260200190815260200160002060006101000a81548160ff0219169083151502179055508315611d1a57826003016000815480929190611d1090612f5d565b9190505550611d35565b826004016000815480929190611d2f90612f5d565b91905055505b600383600401548460030154611d4b91906138ef565b03611d5a57611d598561247a565b5b7f3a670ceb4b5220591b28bde3bc1f2b2f0f68f37f105a13bfc395e336a327a69d853386604051611d8d93929190613d36565b60405180910390a15050505050565b603c81565b60045481565b60006002600083815260200190815260200160002090508060030160009054906101000a900473ffffffffffffffffffffffffffffffffffffffff1673ffffffffffffffffffffffffffffffffffffffff163373ffffffffffffffffffffffffffffffffffffffff1614611e50576040517f08c379a0000000000000000000000000000000000000000000000000000000008152600401611e4790613ddf565b60405180910390fd5b600073ffffffffffffffffffffffffffffffffffffffff168160030160009054906101000a900473ffffffffffffffffffffffffffffffffffffffff1673ffffffffffffffffffffffffffffffffffffffff1603611ee3576040517f08c379a0000000000000000000000000000000000000000000000000000000008152600401611eda90613e4b565b60405180910390fd5b8060030160149054906101000a900460ff1615611f35576040517f08c379a0000000000000000000000000000000000000000000000000000000008152600401611f2c90613eb7565b60405180910390fd5b60018160030160146101000a81548160ff0219169083151502179055504281600401819055507fc1fa7142cfb933d0855114a3bffde296944c30b727f297c14d0db4d553d3a5c782604051611f8a9190612d06565b60405180910390a15050565b600381565b611fa36127b6565b60036001805490501015611fec576040517f08c379a0000000000000000000000000000000000000000000000000000000008152600401611fe390613f23565b60405180910390fd5b6000600a6001805490501061200257600a612009565b6001805490505b905060008167ffffffffffffffff81111561202757612026612824565b5b6040519080825280602002602001820160405280156120555781602001602082028036833780820191505090505b509050600060018054905067ffffffffffffffff81111561207957612078612824565b5b6040519080825280602002602001820160405280156120a75781602001602082028036833780820191505090505b50905060005b6001805490508110156120ed57808282815181106120ce576120cd613687565b5b60200260200101818152505080806120e590612f5d565b9150506120ad565b5060005b838110156122565760008160018054905061210c91906136b6565b42448460405160200161212193929190613f64565b6040516020818303038152906040528051906020012060001c6121449190613fd0565b9050600183828151811061215b5761215a613687565b5b60200260200101518154811061217457612173613687565b5b9060005260206000200160009054906101000a900473ffffffffffffffffffffffffffffffffffffffff168483815181106121b2576121b1613687565b5b602002602001019073ffffffffffffffffffffffffffffffffffffffff16908173ffffffffffffffffffffffffffffffffffffffff16815250508260018360018054905061220091906136b6565b61220a91906136b6565b8151811061221b5761221a613687565b5b602002602001015183828151811061223657612235613687565b5b60200260200101818152505050808061224e90612f5d565b9150506120f1565b5061225f6127b6565b60005b600381101561246f5760008060005b600a8110156123a557600073ffffffffffffffffffffffffffffffffffffffff168782815181106122a5576122a4613687565b5b602002602001015173ffffffffffffffffffffffffffffffffffffffff161415801561232b5750826000808984815181106122e3576122e2613687565b5b602002602001015173ffffffffffffffffffffffffffffffffffffffff1673ffffffffffffffffffffffffffffffffffffffff16815260200190815260200160002060010154115b156123925760008088838151811061234657612345613687565b5b602002602001015173ffffffffffffffffffffffffffffffffffffffff1673ffffffffffffffffffffffffffffffffffffffff1681526020019081526020016000206001015492508091505b808061239d90612f5d565b915050612271565b508581815181106123b9576123b8613687565b5b60200260200101518484600381106123d4576123d3613687565b5b602002019073ffffffffffffffffffffffffffffffffffffffff16908173ffffffffffffffffffffffffffffffffffffffff168152505060008682815181106124205761241f613687565b5b602002602001019073ffffffffffffffffffffffffffffffffffffffff16908173ffffffffffffffffffffffffffffffffffffffff16815250505050808061246790612f5d565b915050612262565b508094505050505090565b600060036000838152602001908152602001600020905060006002600084815260200190815260200160002090506000826004015483600301541190506000816124e8578260000160009054906101000a900473ffffffffffffffffffffffffffffffffffffffff1661250e565b8260030160009054906101000a900473ffffffffffffffffffffffffffffffffffffffff165b905060018460060160006101000a81548160ff02191690831515021790555060008360050160006101000a81548160ff02191690831515021790555060018360030160156101000a81548160ff021916908315150217905550600066470de4df820000846002015461258091906138ef565b90508173ffffffffffffffffffffffffffffffffffffffff166108fc829081150290604051600060405180830381858888f193505050501580156125c8573d6000803e3d6000fd5b5060005b6003811015612679578560000181600381106125eb576125ea613687565b5b0160009054906101000a900473ffffffffffffffffffffffffffffffffffffffff1673ffffffffffffffffffffffffffffffffffffffff166108fc600366470de4df82000061263a9190614001565b9081150290604051600060405180830381858888f19350505050158015612665573d6000803e3d6000fd5b50808061267190612f5d565b9150506125cc565b507f5a87909bff68caaaaf0b3fd9c74eeccc928832f879315e5c6fb7a73612f26c0c86846040516126ab929190614032565b60405180910390a1505050505050565b604051806101200160405280600073ffffffffffffffffffffffffffffffffffffffff1681526020016060815260200160008152602001600073ffffffffffffffffffffffffffffffffffffffff16815260200160001515815260200160001515815260200160008152602001600015158152602001606081525090565b82600381019282156127a5579160200282015b828111156127a45782518260006101000a81548173ffffffffffffffffffffffffffffffffffffffff021916908373ffffffffffffffffffffffffffffffffffffffff1602179055509160200191906001019061274c565b5b5090506127b291906127d8565b5090565b6040518060600160405280600390602082028036833780820191505090505090565b5b808211156127f15760008160009055506001016127d9565b5090565b6000604051905090565b600080fd5b600080fd5b600080fd5b600080fd5b6000601f19601f8301169050919050565b7f4e487b7100000000000000000000000000000000000000000000000000000000600052604160045260246000fd5b61285c82612813565b810181811067ffffffffffffffff8211171561287b5761287a612824565b5b80604052505050565b600061288e6127f5565b905061289a8282612853565b919050565b600067ffffffffffffffff8211156128ba576128b9612824565b5b6128c382612813565b9050602081019050919050565b82818337600083830152505050565b60006128f26128ed8461289f565b612884565b90508281526020810184848401111561290e5761290d61280e565b5b6129198482856128d0565b509392505050565b600082601f83011261293657612935612809565b5b81356129468482602086016128df565b91505092915050565b600060208284031215612965576129646127ff565b5b600082013567ffffffffffffffff81111561298357612982612804565b5b61298f84828501612921565b91505092915050565b6000819050919050565b6129ab81612998565b81146129b657600080fd5b50565b6000813590506129c8816129a2565b92915050565b6000602082840312156129e4576129e36127ff565b5b60006129f2848285016129b9565b91505092915050565b600073ffffffffffffffffffffffffffffffffffffffff82169050919050565b6000612a26826129fb565b9050919050565b612a3681612a1b565b82525050565b600081519050919050565b600082825260208201905092915050565b60005b83811015612a76578082015181840152602081019050612a5b565b60008484015250505050565b6000612a8d82612a3c565b612a978185612a47565b9350612aa7818560208601612a58565b612ab081612813565b840191505092915050565b612ac481612998565b82525050565b60008115159050919050565b612adf81612aca565b82525050565b600061012083016000830151612afe6000860182612a2d565b5060208301518482036020860152612b168282612a82565b9150506040830151612b2b6040860182612abb565b506060830151612b3e6060860182612a2d565b506080830151612b516080860182612ad6565b5060a0830151612b6460a0860182612ad6565b5060c0830151612b7760c0860182612abb565b5060e0830151612b8a60e0860182612ad6565b50610100830151848203610100860152612ba48282612a82565b9150508091505092915050565b60006020820190508181036000830152612bcb8184612ae5565b905092915050565b612bdc81612a1b565b8114612be757600080fd5b50565b600081359050612bf981612bd3565b92915050565b600060208284031215612c1557612c146127ff565b5b6000612c2384828501612bea565b91505092915050565b612c3581612aca565b82525050565b612c4481612998565b82525050565b6000604082019050612c5f6000830185612c2c565b612c6c6020830184612c3b565b9392505050565b6000606082019050612c886000830186612c3b565b612c956020830185612c3b565b612ca26040830184612c2c565b949350505050565b60008060408385031215612cc157612cc06127ff565b5b6000612ccf858286016129b9565b925050602083013567ffffffffffffffff811115612cf057612cef612804565b5b612cfc85828601612921565b9150509250929050565b6000602082019050612d1b6000830184612c3b565b92915050565b612d2a81612a1b565b82525050565b600082825260208201905092915050565b6000612d4c82612a3c565b612d568185612d30565b9350612d66818560208601612a58565b612d6f81612813565b840191505092915050565b600061012082019050612d90600083018c612d21565b8181036020830152612da2818b612d41565b9050612db1604083018a612c3b565b612dbe6060830189612d21565b612dcb6080830188612c2c565b612dd860a0830187612c2c565b612de560c0830186612c3b565b612df260e0830185612c2c565b818103610100830152612e058184612d41565b90509a9950505050505050505050565b6000602082019050612e2a6000830184612d21565b92915050565b612e3981612aca565b8114612e4457600080fd5b50565b600081359050612e5681612e30565b92915050565b60008060408385031215612e7357612e726127ff565b5b6000612e81858286016129b9565b9250506020612e9285828601612e47565b9150509250929050565b7f4d7573742070726f7669646520612072657761726420666f722074686520746160008201527f736b000000000000000000000000000000000000000000000000000000000000602082015250565b6000612ef8602283612d30565b9150612f0382612e9c565b604082019050919050565b60006020820190508181036000830152612f2781612eeb565b9050919050565b7f4e487b7100000000000000000000000000000000000000000000000000000000600052601160045260246000fd5b6000612f6882612998565b91507fffffffffffffffffffffffffffffffffffffffffffffffffffffffffffffffff8203612f9a57612f99612f2e565b5b600182019050919050565b7f4e487b7100000000000000000000000000000000000000000000000000000000600052602260045260246000fd5b60006002820490506001821680612fec57607f821691505b602082108103612fff57612ffe612fa5565b5b50919050565b60008190508160005260206000209050919050565b60006020601f8301049050919050565b600082821b905092915050565b6000600883026130677fffffffffffffffffffffffffffffffffffffffffffffffffffffffffffffffff8261302a565b613071868361302a565b95508019841693508086168417925050509392505050565b6000819050919050565b60006130ae6130a96130a484612998565b613089565b612998565b9050919050565b6000819050919050565b6130c883613093565b6130dc6130d4826130b5565b848454613037565b825550505050565b600090565b6130f16130e4565b6130fc8184846130bf565b505050565b5b81811015613120576131156000826130e9565b600181019050613102565b5050565b601f8211156131655761313681613005565b61313f8461301a565b8101602085101561314e578190505b61316261315a8561301a565b830182613101565b50505b505050565b600082821c905092915050565b60006131886000198460080261316a565b1980831691505092915050565b60006131a18383613177565b9150826002028217905092915050565b6131ba82612a3c565b67ffffffffffffffff8111156131d3576131d2612824565b5b6131dd8254612fd4565b6131e8828285613124565b600060209050601f83116001811461321b5760008415613209578287015190505b6132138582613195565b86555061327b565b601f19841661322986613005565b60005b828110156132515784890151825560018201915060208501945060208101905061322c565b8683101561326e578489015161326a601f891682613177565b8355505b6001600288020188555050505b505050505050565b60006080820190506132986000830187612c3b565b6132a56020830186612d21565b81810360408301526132b78185612d41565b90506132c66060830184612c3b565b95945050505050565b7f4d7573742070726f76696465207374616b6520746f206265636f6d6520616e2060008201527f61726269747261746f7200000000000000000000000000000000000000000000602082015250565b600061332b602a83612d30565b9150613336826132cf565b604082019050919050565b6000602082019050818103600083015261335a8161331e565b9050919050565b7f416c726561647920616e206163746976652061726269747261746f7200000000600082015250565b6000613397601c83612d30565b91506133a282613361565b602082019050919050565b600060208201905081810360008301526133c68161338a565b9050919050565b60006040820190506133e26000830185612d21565b6133ef6020830184612c3b565b9392505050565b7f5461736b20646f6573206e6f7420657869737400000000000000000000000000600082015250565b600061342c601383612d30565b9150613437826133f6565b602082019050919050565b6000602082019050818103600083015261345b8161341f565b9050919050565b7f5461736b20616c72656164792061636365707465640000000000000000000000600082015250565b6000613498601583612d30565b91506134a382613462565b602082019050919050565b600060208201905081810360008301526134c78161348b565b9050919050565b7f43726561746f722063616e6e6f7420616363657074207468656972206f776e2060008201527f7461736b00000000000000000000000000000000000000000000000000000000602082015250565b600061352a602483612d30565b9150613535826134ce565b604082019050919050565b600060208201905081810360008301526135598161351d565b9050919050565b7f4d7573742070726f766964652061726269747261746f7220666565206173207360008201527f74616b6500000000000000000000000000000000000000000000000000000000602082015250565b60006135bc602483612d30565b91506135c782613560565b604082019050919050565b600060208201905081810360008301526135eb816135af565b9050919050565b60006040820190506136076000830185612c3b565b6136146020830184612d21565b9392505050565b7f4e6f7420616e206163746976652061726269747261746f720000000000000000600082015250565b6000613651601883612d30565b915061365c8261361b565b602082019050919050565b6000602082019050818103600083015261368081613644565b9050919050565b7f4e487b7100000000000000000000000000000000000000000000000000000000600052603260045260246000fd5b60006136c182612998565b91506136cc83612998565b92508282039050818111156136e4576136e3612f2e565b5b92915050565b7f4e487b7100000000000000000000000000000000000000000000000000000000600052603160045260246000fd5b7f4f6e6c79207461736b2063726561746f722063616e207261697365206120646960008201527f7370757465000000000000000000000000000000000000000000000000000000602082015250565b6000613775602583612d30565b915061378082613719565b604082019050919050565b600060208201905081810360008301526137a481613768565b9050919050565b7f5461736b206973206e6f7420636f6d706c657465642079657400000000000000600082015250565b60006137e1601983612d30565b91506137ec826137ab565b602082019050919050565b60006020820190508181036000830152613810816137d4565b9050919050565b7f5061796d656e7420616c72656164792072656c65617365640000000000000000600082015250565b600061384d601883612d30565b915061385882613817565b602082019050919050565b6000602082019050818103600083015261387c81613840565b9050919050565b7f4469737075746520616c72656164792072616973656400000000000000000000600082015250565b60006138b9601683612d30565b91506138c482613883565b602082019050919050565b600060208201905081810360008301526138e8816138ac565b9050919050565b60006138fa82612998565b915061390583612998565b925082820190508082111561391d5761391c612f2e565b5b92915050565b7f4469737075746520706572696f642068617320656e6465640000000000000000600082015250565b6000613959601883612d30565b915061396482613923565b602082019050919050565b600060208201905081810360008301526139888161394c565b9050919050565b60006040820190506139a46000830185612c3b565b81810360208301526139b68184612d41565b90509392505050565b7f4e6f7420617574686f72697a656420746f2072656c65617365207061796d656e60008201527f7400000000000000000000000000000000000000000000000000000000000000602082015250565b6000613a1b602183612d30565b9150613a26826139bf565b604082019050919050565b60006020820190508181036000830152613a4a81613a0e565b9050919050565b7f5461736b206973206e6f7420636f6d706c657465640000000000000000000000600082015250565b6000613a87601583612d30565b9150613a9282613a51565b602082019050919050565b60006020820190508181036000830152613ab681613a7a565b9050919050565b7f5461736b2069732063757272656e746c79206469737075746564000000000000600082015250565b6000613af3601a83612d30565b9150613afe82613abd565b602082019050919050565b60006020820190508181036000830152613b2281613ae6565b9050919050565b6000606082019050613b3e6000830186612c3b565b613b4b6020830185612d21565b613b586040830184612c3b565b949350505050565b7f4e6f20616374697665206469737075746520666f722074686973207461736b00600082015250565b6000613b96601f83612d30565b9150613ba182613b60565b602082019050919050565b60006020820190508181036000830152613bc581613b89565b9050919050565b7f4469737075746520697320616c7265616479207265736f6c7665640000000000600082015250565b6000613c02601b83612d30565b9150613c0d82613bcc565b602082019050919050565b60006020820190508181036000830152613c3181613bf5565b9050919050565b7f4f6e6c792073656c65637465642061726269747261746f72732063616e20766f60008201527f7465000000000000000000000000000000000000000000000000000000000000602082015250565b6000613c94602283612d30565b9150613c9f82613c38565b604082019050919050565b60006020820190508181036000830152613cc381613c87565b9050919050565b7f41726269747261746f722068617320616c726561647920766f74656400000000600082015250565b6000613d00601c83612d30565b9150613d0b82613cca565b602082019050919050565b60006020820190508181036000830152613d2f81613cf3565b9050919050565b6000606082019050613d4b6000830186612c3b565b613d586020830185612d21565b613d656040830184612c2c565b949350505050565b7f4f6e6c792061737369676e656420776f726b65722063616e206d61726b20746160008201527f736b20617320636f6d706c657465640000000000000000000000000000000000602082015250565b6000613dc9602f83612d30565b9150613dd482613d6d565b604082019050919050565b60006020820190508181036000830152613df881613dbc565b9050919050565b7f5461736b20686173206e6f74206265656e206163636570746564000000000000600082015250565b6000613e35601a83612d30565b9150613e4082613dff565b602082019050919050565b60006020820190508181036000830152613e6481613e28565b9050919050565b7f5461736b20697320616c726561647920636f6d706c6574656400000000000000600082015250565b6000613ea1601983612d30565b9150613eac82613e6b565b602082019050919050565b60006020820190508181036000830152613ed081613e94565b9050919050565b7f4e6f7420656e6f7567682061726269747261746f727300000000000000000000600082015250565b6000613f0d601683612d30565b9150613f1882613ed7565b602082019050919050565b60006020820190508181036000830152613f3c81613f00565b9050919050565b6000819050919050565b613f5e613f5982612998565b613f43565b82525050565b6000613f708286613f4d565b602082019150613f808285613f4d565b602082019150613f908284613f4d565b602082019150819050949350505050565b7f4e487b7100000000000000000000000000000000000000000000000000000000600052601260045260246000fd5b6000613fdb82612998565b9150613fe683612998565b925082613ff657613ff5613fa1565b5b828206905092915050565b600061400c82612998565b915061401783612998565b92508261402757614026613fa1565b5b828204905092915050565b60006040820190506140476000830185612c3b565b6140546020830184612c2c565b939250505056fea2646970667358221220cdb968e46492fadc6355f6810932462028d93edcff413626b6b9c6b5b9f55f6a64736f6c63430008130033",
  "immutableReferences": {},
  "source": "// SPDX-License-Identifier: MIT\r\npragma solidity ^0.8.19;\r\n\r\ncontract TaskMarketplace {\r\n    struct Task {\r\n        address creator;\r\n        string description;\r\n        uint256 reward;\r\n        address worker;\r\n        bool isCompleted;\r\n        bool isPaid;\r\n        uint256 completionTime;\r\n        bool isDisputed;\r\n        string disputeReason;\r\n    }\r\n\r\n    struct Arbitrator {\r\n        bool isActive;\r\n        uint256 stake;\r\n    }\r\n\r\n    struct Dispute {\r\n        address[3] arbitrators;\r\n        uint256 votesForWorker;\r\n        uint256 votesForCreator;\r\n        mapping(address => bool) hasVoted;\r\n        bool isResolved;\r\n    }\r\n\r\n    mapping(address => Arbitrator) public arbitrators;\r\n    address[] public arbitratorList;\r\n\r\n    uint256 public constant DISPUTE_PERIOD = 60;\r\n    uint256 public constant ARBITRATOR_FEE = 20000000000000000; // 0.02 ether\r\n    uint256 public constant ARBITRATORS_PER_DISPUTE = 3;\r\n\r\n    mapping(uint256 => Task) public tasks;\r\n    mapping(uint256 => Dispute) public disputes;\r\n    uint256 public taskCount;\r\n\r\n    event TaskCreated(uint256 taskId, address creator, string description, uint256 reward);\r\n    event TaskAccepted(uint256 taskId, address worker);\r\n    event TaskCompleted(uint256 taskId);\r\n    event PaymentReleased(uint256 taskId, address worker, uint256 amount);\r\n    event DisputeRaised(uint256 taskId, string reason);\r\n    event DisputeResolved(uint256 taskId, bool workerPaid);\r\n    event ArbitratorAdded(address arbitrator, uint256 stake);\r\n    event ArbitratorRemoved(address arbitrator, uint256 returnedStake);\r\n    event ArbitratorVoted(uint256 taskId, address arbitrator, bool voteForWorker);\r\n\r\n    function createTask(string memory _description) external payable {\r\n        require(msg.value > 0, \"Must provide a reward for the task\");\r\n\r\n        taskCount++;\r\n        tasks[taskCount] = Task({\r\n            creator: msg.sender,\r\n            description: _description,\r\n            reward: msg.value,\r\n            worker: address(0),\r\n            isCompleted: false,\r\n            isPaid: false,\r\n            completionTime: 0,\r\n            isDisputed: false,\r\n            disputeReason: \"\"\r\n        });\r\n\r\n        emit TaskCreated(taskCount, msg.sender, _description, msg.value);\r\n    }\r\n\r\n    function acceptTask(uint256 _taskId) external payable {\r\n        Task storage task = tasks[_taskId];\r\n        require(task.creator != address(0), \"Task does not exist\");\r\n        require(task.worker == address(0), \"Task already accepted\");\r\n        require(msg.sender != task.creator, \"Creator cannot accept their own task\");\r\n        require(msg.value == ARBITRATOR_FEE, \"Must provide arbitrator fee as stake\");\r\n\r\n        task.worker = msg.sender;\r\n        emit TaskAccepted(_taskId, msg.sender);\r\n    }\r\n\r\n    function completeTask(uint256 _taskId) external {\r\n        Task storage task = tasks[_taskId];\r\n        require(msg.sender == task.worker, \"Only assigned worker can mark task as completed\");\r\n        require(task.worker != address(0), \"Task has not been accepted\");\r\n        require(!task.isCompleted, \"Task is already completed\");\r\n\r\n        task.isCompleted = true;\r\n        task.completionTime = block.timestamp;\r\n        emit TaskCompleted(_taskId);\r\n    }\r\n\r\n    function becomeArbitrator() external payable {\r\n        require(msg.value > 0, \"Must provide stake to become an arbitrator\");\r\n        require(!arbitrators[msg.sender].isActive, \"Already an active arbitrator\");\r\n\r\n        arbitrators[msg.sender] = Arbitrator({\r\n            isActive: true,\r\n            stake: msg.value\r\n        });\r\n        arbitratorList.push(msg.sender);\r\n\r\n        emit ArbitratorAdded(msg.sender, msg.value);\r\n    }\r\n\r\n    function stopBeingArbitrator() external {\r\n        require(arbitrators[msg.sender].isActive, \"Not an active arbitrator\");\r\n\r\n        uint256 stake = arbitrators[msg.sender].stake;\r\n        arbitrators[msg.sender].isActive = false;\r\n        arbitrators[msg.sender].stake = 0;\r\n\r\n        for (uint i = 0; i < arbitratorList.length; i++) {\r\n            if (arbitratorList[i] == msg.sender) {\r\n                arbitratorList[i] = arbitratorList[arbitratorList.length - 1];\r\n                arbitratorList.pop();\r\n                break;\r\n            }\r\n        }\r\n\r\n        payable(msg.sender).transfer(stake);\r\n        emit ArbitratorRemoved(msg.sender, stake);\r\n    }\r\n\r\n    function raiseDispute(uint256 _taskId, string memory _reason) external payable {\r\n        Task storage task = tasks[_taskId];\r\n        require(msg.sender == task.creator, \"Only task creator can raise a dispute\");\r\n        require(task.isCompleted, \"Task is not completed yet\");\r\n        require(!task.isPaid, \"Payment already released\");\r\n        require(!task.isDisputed, \"Dispute already raised\");\r\n        require(block.timestamp <= task.completionTime + DISPUTE_PERIOD, \"Dispute period has ended\");\r\n        require(msg.value == ARBITRATOR_FEE, \"Must provide arbitrator fee as stake\");\r\n\r\n        task.isDisputed = true;\r\n        task.disputeReason = _reason;\r\n\r\n        // Initialize the dispute\r\n        Dispute storage dispute = disputes[_taskId];\r\n        dispute.arbitrators = selectArbitrators();\r\n        dispute.votesForWorker = 0;\r\n        dispute.votesForCreator = 0;\r\n        dispute.isResolved = false;\r\n\r\n        emit DisputeRaised(_taskId, _reason);\r\n    }\r\n\r\n    function selectArbitrators() private view returns (address[3] memory) {\r\n        require(arbitratorList.length >= ARBITRATORS_PER_DISPUTE, \"Not enough arbitrators\");\r\n\r\n        // Randomly select 10 arbitrators (or less if less than 10 are available)\r\n        uint256 selectCount = arbitratorList.length < 10 ? arbitratorList.length : 10;\r\n        address[] memory selectedArbitrators = new address[](selectCount);\r\n        uint256[] memory indices = new uint256[](arbitratorList.length);\r\n        \r\n        for (uint256 i = 0; i < arbitratorList.length; i++) {\r\n            indices[i] = i;\r\n        }\r\n\r\n        for (uint256 i = 0; i < selectCount; i++) {\r\n            uint256 randomIndex = uint256(keccak256(abi.encodePacked(block.timestamp, block.prevrandao, i))) % (arbitratorList.length - i);\r\n            selectedArbitrators[i] = arbitratorList[indices[randomIndex]];\r\n            indices[randomIndex] = indices[arbitratorList.length - i - 1];\r\n        }\r\n\r\n        // Select top 3 arbitrators with highest stakes\r\n        address[ARBITRATORS_PER_DISPUTE] memory topThree;\r\n        for (uint256 i = 0; i < ARBITRATORS_PER_DISPUTE; i++) {\r\n            uint256 maxStake = 0;\r\n            uint256 maxIndex = 0;\r\n            for (uint256 j = 0; j < 10; j++) {\r\n                if (selectedArbitrators[j] != address(0) && arbitrators[selectedArbitrators[j]].stake > maxStake) {\r\n                    maxStake = arbitrators[selectedArbitrators[j]].stake;\r\n                    maxIndex = j;\r\n                }\r\n            }\r\n            topThree[i] = selectedArbitrators[maxIndex];\r\n            selectedArbitrators[maxIndex] = address(0); // Mark this arbitrator as selected\r\n        }\r\n\r\n        return topThree;\r\n    }\r\n\r\n    function voteOnDispute(uint256 _taskId, bool _voteForWorker) external {\r\n        Dispute storage dispute = disputes[_taskId];\r\n        Task storage task = tasks[_taskId];\r\n        \r\n        require(task.isDisputed, \"No active dispute for this task\");\r\n        require(!dispute.isResolved, \"Dispute is already resolved\");\r\n        \r\n        bool isArbitrator = false;\r\n        for (uint i = 0; i < ARBITRATORS_PER_DISPUTE; i++) {\r\n            if (dispute.arbitrators[i] == msg.sender) {\r\n                isArbitrator = true;\r\n                break;\r\n            }\r\n        }\r\n\r\n        require(isArbitrator, \"Only selected arbitrators can vote\");\r\n        require(!dispute.hasVoted[msg.sender], \"Arbitrator has already voted\");\r\n\r\n        dispute.hasVoted[msg.sender] = true;\r\n\r\n        if (_voteForWorker) {\r\n            dispute.votesForWorker++;\r\n        } else {\r\n            dispute.votesForCreator++;\r\n        }\r\n\r\n        if (dispute.votesForWorker + dispute.votesForCreator == 3) {\r\n            resolveDispute(_taskId);\r\n        }\r\n\r\n        emit ArbitratorVoted(_taskId, msg.sender, _voteForWorker);\r\n    }\r\n\r\n    function resolveDispute(uint256 _taskId) internal {\r\n        Dispute storage dispute = disputes[_taskId];\r\n        Task storage task = tasks[_taskId];\r\n\r\n        bool workerWins = dispute.votesForWorker > dispute.votesForCreator;\r\n        address winner = workerWins ? task.worker : task.creator;\r\n\r\n        dispute.isResolved = true;\r\n        task.isDisputed = false;\r\n        task.isPaid = true;\r\n\r\n        // Winning party gets the reward + their original arbitrator fee\r\n        uint256 winnerPayment = task.reward + ARBITRATOR_FEE;\r\n        payable(winner).transfer(winnerPayment);\r\n\r\n        // Distribute arbitrator fee from the losing party\r\n        for (uint i = 0; i < ARBITRATORS_PER_DISPUTE; i++) {\r\n            payable(dispute.arbitrators[i]).transfer(ARBITRATOR_FEE / ARBITRATORS_PER_DISPUTE);\r\n        }\r\n\r\n        emit DisputeResolved(_taskId, workerWins);\r\n    }\r\n\r\n    function releasePayment(uint256 _taskId) external {\r\n        Task storage task = tasks[_taskId];\r\n        require(\r\n            msg.sender == task.creator ||\r\n            (msg.sender == task.worker && block.timestamp > task.completionTime + DISPUTE_PERIOD),\r\n            \"Not authorized to release payment\"\r\n        );\r\n        require(task.isCompleted, \"Task is not completed\");\r\n        require(!task.isPaid, \"Payment already released\");\r\n        require(!task.isDisputed, \"Task is currently disputed\");\r\n\r\n        task.isPaid = true;\r\n        \r\n        payable(task.creator).transfer(ARBITRATOR_FEE);\r\n        payable(task.worker).transfer(task.reward + ARBITRATOR_FEE);\r\n        \r\n        emit PaymentReleased(_taskId, task.worker, task.reward);\r\n    }\r\n\r\n    function getTask(uint256 _taskId) external view returns (Task memory) {\r\n        require(tasks[_taskId].creator != address(0), \"Task does not exist\");\r\n        return tasks[_taskId];\r\n    }\r\n}",
  "sourcePath": "C:\\Users\\josip\\Documents\\GitHub\\eth-task-marketplace\\src\\truffle\\contracts\\TaskMarketplace.sol",
  "compiler": {
    "name": "solc",
    "version": "0.8.19+commit.7dd6d404.Emscripten.clang"
  },
  "schemaVersion": "3.4.16",
  "updatedAt": "2024-08-28T09:22:07.411Z",
  "networkType": "ethereum",
  "devdoc": {
    "kind": "dev",
    "methods": {},
    "version": 1
  },
  "userdoc": {
    "kind": "user",
    "methods": {},
    "version": 1
  }
}